{"contracts/SimpleStorage.sol":{"SimpleStorage":{"abi":[{"anonymous":false,"inputs":[{"indexed":false,"internalType":"uint256","name":"newValue","type":"uint256"}],"name":"ValueUpdated","type":"event"},{"inputs":[],"name":"getValue","outputs":[{"internalType":"uint256","name":"","type":"uint256"}],"stateMutability":"view","type":"function"},{"inputs":[],"name":"increment","outputs":[],"stateMutability":"nonpayable","type":"function"},{"inputs":[{"internalType":"uint256","name":"_value","type":"uint256"}],"name":"setValue","outputs":[],"stateMutability":"nonpayable","type":"function"}],"evm":{"bytecode":{"linkReferences":{},"object":"608060405234801561001057600080fd5b50610178806100206000396000f3fe608060405234801561001057600080fd5b50600436106100415760003560e01c80632096525514610046578063552410771461005b578063d09de08a14610070575b600080fd5b60005460405190815260200160405180910390f35b61006e610069366004610102565b610078565b005b61006e6100b3565b60008190556040518181527f4273d0736f60e0dedfe745e86718093d8ec8646ebd2a60cd60643eeced5658119060200160405180910390a150565b60016000808282546100c5919061011b565b90915550506000546040519081527f4273d0736f60e0dedfe745e86718093d8ec8646ebd2a60cd60643eeced5658119060200160405180910390a1565b60006020828403121561011457600080fd5b5035919050565b8082018082111561013c57634e487b7160e01b600052601160045260246000fd5b9291505056fea264697066735822122071d7c20207ac36b1c610f2544dd1b7a52844b01f41a39ae1f3086797b7ac83a264736f6c63430008130033","opcodes":"PUSH1 0x80 PUSH1 0x40 MSTORE CALLVALUE DUP1 ISZERO PUSH2 0x10 JUMPI PUSH1 0x0 DUP1 REVERT JUMPDEST POP PUSH2 0x178 DUP1 PUSH2 0x20 PUSH1 0x0 CODECOPY PUSH1 0x0 RETURN INVALID PUSH1 0x80 PUSH1 0x40 MSTORE CALLVALUE DUP1 ISZERO PUSH2 0x10 JUMPI PUSH1 0x0 DUP1 REVERT JUMPDEST POP PUSH1 0x4 CALLDATASIZE LT PUSH2 0x41 JUMPI PUSH1 0x0 CALLDATALOAD PUSH1 0xE0 SHR DUP1 PUSH4 0x20965255 EQ PUSH2 0x46 JUMPI DUP1 PUSH4 0x55241077 EQ PUSH2 0x5B JUMPI DUP1 PUSH4 0xD09DE08A EQ PUSH2 0x70 JUMPI JUMPDEST PUSH1 0x0 DUP1 REVERT JUMPDEST PUSH1 0x0 SLOAD PUSH1 0x40 MLOAD SWAP1 DUP2 MSTORE PUSH1 0x20 ADD PUSH1 0x40 MLOAD DUP1 SWAP2 SUB SWAP1 RETURN JUMPDEST PUSH2 0x6E PUSH2 0x69 CALLDATASIZE PUSH1 0x4 PUSH2 0x102 JUMP JUMPDEST PUSH2 0x78 JUMP JUMPDEST STOP JUMPDEST PUSH2 0x6E PUSH2 0xB3 JUMP JUMPDEST PUSH1 0x0 DUP2 SWAP1 SSTORE PUSH1 0x40 MLOAD DUP2 DUP2 MSTORE PUSH32 0x4273D0736F60E0DEDFE745E86718093D8EC8646EBD2A60CD60643EECED565811 SWAP1 PUSH1 0x20 ADD PUSH1 0x40 MLOAD DUP1 SWAP2 SUB SWAP1 LOG1 POP JUMP JUMPDEST PUSH1 0x1 PUSH1 0x0 DUP1 DUP3 DUP3 SLOAD PUSH2 0xC5 SWAP2 SWAP1 PUSH2 0x11B JUMP JUMPDEST SWAP1 SWAP2 SSTORE POP POP PUSH1 0x0 SLOAD PUSH1 0x40 MLOAD SWAP1 DUP2 MSTORE PUSH32 0x4273D0736F60E0DEDFE745E86718093D8EC8646EBD2A60CD60643EECED565811 SWAP1 PUSH1 0x20 ADD PUSH1 0x40 MLOAD DUP1 SWAP2 SUB SWAP1 LOG1 JUMP JUMPDEST PUSH1 0x0 PUSH1 0x20 DUP3 DUP5 SUB SLT ISZERO PUSH2 0x114 JUMPI PUSH1 0x0 DUP1 REVERT JUMPDEST POP CALLDATALOAD SWAP2 SWAP1 POP JUMP JUMPDEST DUP1 DUP3 ADD DUP1 DUP3 GT ISZERO PUSH2 0x13C JUMPI PUSH4 0x4E487B71 PUSH1 0xE0 SHL PUSH1 0x0 MSTORE PUSH1 0x11 PUSH1 0x4 MSTORE PUSH1 0x24 PUSH1 0x0 REVERT JUMPDEST SWAP3 SWAP2 POP POP JUMP INVALID LOG2 PUSH5 0x6970667358 0x22 SLT KECCAK256 PUSH18 0xD7C20207AC36B1C610F2544DD1B7A52844B0 0x1F COINBASE LOG3 SWAP11 0xE1 RETURN ADDMOD PUSH8 0x97B7AC83A264736F PUSH13 0x63430008130033000000000000 "},"methodIdentifiers":{"getValue()":"20965255","increment()":"d09de08a","setValue(uint256)":"55241077"}}}}}